{
  "contractName": "Blog",
  "abi": [
    {
      "inputs": [],
      "payable": false,
      "stateMutability": "nonpayable",
      "type": "constructor"
    },
    {
      "anonymous": false,
      "inputs": [
        {
          "indexed": false,
          "internalType": "uint256",
          "name": "id",
          "type": "uint256"
        },
        {
          "indexed": false,
          "internalType": "string",
          "name": "title",
          "type": "string"
        },
        {
          "indexed": false,
          "internalType": "string",
          "name": "content",
          "type": "string"
        },
        {
          "indexed": false,
          "internalType": "address",
          "name": "author",
          "type": "address"
        },
        {
          "indexed": false,
          "internalType": "uint256",
          "name": "timestamp",
          "type": "uint256"
        }
      ],
      "name": "PostCreated",
      "type": "event"
    },
    {
      "constant": true,
      "inputs": [],
      "name": "postCount",
      "outputs": [
        {
          "internalType": "uint256",
          "name": "",
          "type": "uint256"
        }
      ],
      "payable": false,
      "stateMutability": "view",
      "type": "function"
    },
    {
      "constant": true,
      "inputs": [
        {
          "internalType": "uint256",
          "name": "",
          "type": "uint256"
        }
      ],
      "name": "posts",
      "outputs": [
        {
          "internalType": "uint256",
          "name": "id",
          "type": "uint256"
        },
        {
          "internalType": "string",
          "name": "title",
          "type": "string"
        },
        {
          "internalType": "string",
          "name": "content",
          "type": "string"
        },
        {
          "internalType": "address",
          "name": "author",
          "type": "address"
        },
        {
          "internalType": "uint256",
          "name": "timestamp",
          "type": "uint256"
        }
      ],
      "payable": false,
      "stateMutability": "view",
      "type": "function"
    },
    {
      "constant": false,
      "inputs": [
        {
          "internalType": "string",
          "name": "_title",
          "type": "string"
        },
        {
          "internalType": "string",
          "name": "_content",
          "type": "string"
        }
      ],
      "name": "createPost",
      "outputs": [],
      "payable": false,
      "stateMutability": "nonpayable",
      "type": "function"
    }
  ],
  "bytecode": "0x60806040526000805534801561001457600080fd5b5061006a6040518060400160405280601281526020017157656c636f6d6520746f204d7920426c6f6760701b8152506040518060600160405280603781526020016109ae603791396001600160e01b0361006f16565b6102ea565b6000805460019081018083556040805160a081018252828152602080820188815282840188905233606084015242608084015293865284815291909420845181559151805192936100c89390850192919091019061024f565b50604082015180516100e491600284019160209091019061024f565b5060608201518160030160006101000a8154816001600160a01b0302191690836001600160a01b03160217905550608082015181600401559050507fdc60008b3a62cf83a48833c54f226c5c132ebf1cf78e1170a9660b8e8f772d2460005483833342604051808681526020018060200180602001856001600160a01b03166001600160a01b03168152602001848152602001838103835287818151815260200191508051906020019080838360005b838110156101ac578181015183820152602001610194565b50505050905090810190601f1680156101d95780820380516001836020036101000a031916815260200191505b50838103825286518152865160209182019188019080838360005b8381101561020c5781810151838201526020016101f4565b50505050905090810190601f1680156102395780820380516001836020036101000a031916815260200191505b5097505050505050505060405180910390a15050565b828054600181600116156101000203166002900490600052602060002090601f016020900481019282601f1061029057805160ff19168380011785556102bd565b828001600101855582156102bd579182015b828111156102bd5782518255916020019190600101906102a2565b506102c99291506102cd565b5090565b6102e791905b808211156102c957600081556001016102d3565b90565b6106b5806102f96000396000f3fe608060405234801561001057600080fd5b50600436106100415760003560e01c80630b1e7f831461004657806317906c2e14610168578063392338f514610182575b600080fd5b6100636004803603602081101561005c57600080fd5b50356102b1565b604051808681526020018060200180602001856001600160a01b03166001600160a01b03168152602001848152602001838103835287818151815260200191508051906020019080838360005b838110156100c85781810151838201526020016100b0565b50505050905090810190601f1680156100f55780820380516001836020036101000a031916815260200191505b50838103825286518152865160209182019188019080838360005b83811015610128578181015183820152602001610110565b50505050905090810190601f1680156101555780820380516001836020036101000a031916815260200191505b5097505050505050505060405180910390f35b6101706103ff565b60408051918252519081900360200190f35b6102af6004803603604081101561019857600080fd5b8101906020810181356401000000008111156101b357600080fd5b8201836020820111156101c557600080fd5b803590602001918460018302840111640100000000831117156101e757600080fd5b91908080601f016020809104026020016040519081016040528093929190818152602001838380828437600092019190915250929594936020810193503591505064010000000081111561023a57600080fd5b82018360208201111561024c57600080fd5b8035906020019184600183028401116401000000008311171561026e57600080fd5b91908080601f016020809104026020016040519081016040528093929190818152602001838380828437600092019190915250929550610405945050505050565b005b600160208181526000928352604092839020805481840180548651600296821615610100026000190190911695909504601f8101859004850286018501909652858552909491939290919083018282801561034d5780601f106103225761010080835404028352916020019161034d565b820191906000526020600020905b81548152906001019060200180831161033057829003601f168201915b50505060028085018054604080516020601f60001961010060018716150201909416959095049283018590048502810185019091528181529596959450909250908301828280156103df5780601f106103b4576101008083540402835291602001916103df565b820191906000526020600020905b8154815290600101906020018083116103c257829003601f168201915b50505050600383015460049093015491926001600160a01b031691905085565b60005481565b6000805460019081018083556040805160a0810182528281526020808201888152828401889052336060840152426080840152938652848152919094208451815591518051929361045e939085019291909101906105e5565b506040820151805161047a9160028401916020909101906105e5565b5060608201518160030160006101000a8154816001600160a01b0302191690836001600160a01b03160217905550608082015181600401559050507fdc60008b3a62cf83a48833c54f226c5c132ebf1cf78e1170a9660b8e8f772d2460005483833342604051808681526020018060200180602001856001600160a01b03166001600160a01b03168152602001848152602001838103835287818151815260200191508051906020019080838360005b8381101561054257818101518382015260200161052a565b50505050905090810190601f16801561056f5780820380516001836020036101000a031916815260200191505b50838103825286518152865160209182019188019080838360005b838110156105a257818101518382015260200161058a565b50505050905090810190601f1680156105cf5780820380516001836020036101000a031916815260200191505b5097505050505050505060405180910390a15050565b828054600181600116156101000203166002900490600052602060002090601f016020900481019282601f1061062657805160ff1916838001178555610653565b82800160010185558215610653579182015b82811115610653578251825591602001919060010190610638565b5061065f929150610663565b5090565b61067d91905b8082111561065f5760008155600101610669565b9056fea265627a7a72315820729e4850b2067544d013bf26619b4aa2ddf2eb3fa0b92d7ef1be726298095e5564736f6c63430005100032546869732069732074686520666972737420706f7374206f6e206d7920626c6f672e20537461792074756e656420666f72206d6f726521",
  "source": "pragma solidity ^0.5.0;\r\n\r\ncontract Blog {\r\n    uint public postCount = 0;\r\n\r\n    struct Post {\r\n        uint id;\r\n        string title;\r\n        string content;\r\n        address author;\r\n        uint timestamp;\r\n    }\r\n\r\n    mapping(uint => Post) public posts;\r\n\r\n    event PostCreated(\r\n        uint id,\r\n        string title,\r\n        string content,\r\n        address author,\r\n        uint timestamp\r\n    );\r\n\r\n    constructor() public {\r\n        createPost(\"Welcome to My Blog\", \"This is the first post on my blog. Stay tuned for more!\");\r\n    }\r\n\r\n    function createPost(string memory _title, string memory _content) public {\r\n        postCount++;\r\n        posts[postCount] = Post(postCount, _title, _content, msg.sender, now);\r\n        emit PostCreated(postCount, _title, _content, msg.sender, now);\r\n    }\r\n}\r\n",
  "sourcePath": "C:\\Users\\shaan\\OneDrive\\Desktop\\Blockchain Mini Project\\eth-todo-list\\contracts\\Blog.sol",
  "compiler": {
    "name": "solc",
    "version": "0.5.16+commit.9c3226ce.Emscripten.clang"
  },
  "schemaVersion": "3.4.16",
  "updatedAt": "2024-04-14T07:30:31.057Z",
  "networkType": "ethereum",
  "devdoc": {
    "methods": {}
  },
  "userdoc": {
    "methods": {}
  }
}